S00F000061737369676E342E737265635C
S11300000030002031010000C1000000C5000000E4
S1130010C1000000C1000000C1000000C1000000D8
S1130020C1000000C1000000C1000000C1000000C8
S1130030C1000000C1000000C1000000F50700007D
S1130040C1000000C1000000C1000000C1000000A8
S1130050C1000000C1000000C1000000C100000098
S1130060C1000000C1000000C1000000C100000088
S1130070C1000000C1000000C1000000C100000078
S1130080C1000000C1000000C1000000C100000068
S1130090C1000000C1000000C1000000C100000058
S11300A0C1000000C1000000C1000000C100000048
S11300B0C1000000C1000000C1000000C100000038
S11300C0FEE7C046FEE7C04680231249124A9B0160
S11300D0885810B503438B50104B11495A680224B9
S11300E00A405A608022596852000A435A600D4AF5
S11300F05069A04350615968214359600221136932
S11301001942FCD00349044A07488B5803408B50DA
S113011010BDC046007004403810000000D00440F8
S1130120FFF8FFFF00F10F40FFDFFFFFC046C046AE
S1130130FFF7CAFF364A374B37499A608022374B5C
S11301409200585802435A50354A364999501A6811
S113015035490A4080211A60344A490298580143BB
S113016099509958324808408021490401439950D4
S1130170304B3148996C01409964DA6C002102409B
S1130180DA6424222D4B19702D4B5A7074321A7074
S1130190D878793A0240DA7001221A715971103113
S11301A09A791142FCD10C21254A93790B40082BF2
S11301B0FBD1402138335371214A93791942FCD041
S11301C0182313700C221E498B7913400C2BFBD17E
S11301D01C4B1D4A93420CD2D9438918002289082A
S11301E001311A48890084589C5004328A42FAD159
S11301F09B18174A934208D80321D21A8A43002134
S1130200181D121802C39342FCD100F001F9C04634
S11302100000000000ED00E0381000000070044011
S11302204410000000000110FFFFF3FF0410000061
S1130230FFFFFFFC00900440FFF8FFFE0050064063
S11302400040064000F0FF1F00F0FF1F9C09000063
S113025009F0FF1F00000000000000000000000083
S1130260000000000000000000000000000000008A
S1130270000000000000000000000000000000007A
S1130280000000000000000000000000000000006A
S1130290000000000000000000000000000000005A
S11302A0000000000000000000000000000000004A
S11302B0000000000000000000000000000000003A
S11302C0000000000000000000000000000000002A
S11302D0000000000000000000000000000000001A
S11302E0000000000000000000000000000000000A
S11302F000000000000000000000000000000000FA
S113030000000000000000000000000000000000E9
S113031000000000000000000000000000000000D9
S113032000000000000000000000000000000000C9
S113033000000000000000000000000000000000B9
S113034000000000000000000000000000000000A9
S11303500000000000000000000000000000000099
S11303600000000000000000000000000000000089
S11303700000000000000000000000000000000079
S11303800000000000000000000000000000000069
S11303900000000000000000000000000000000059
S11303A00000000000000000000000000000000049
S11303B00000000000000000000000000000000039
S11303C00000000000000000000000000000000029
S11303D00000000000000000000000000000000019
S11303E00000000000000000000000000000000009
S11303F000000000000000000000000000000000F9
S1130400FFFFFFFFFFFFFFFFFFFFFFFF7EF7FFFF81
S1130410F0B5C64600B572B600F04EF900F0D6F954
S113042000F002FA00F0ECF962B600F0BFF9002324
S11304300027984600260025002430BF00F0D0F99C
S11304400028FAD000F01AFA00F050FA062816D064
S1130450052817D0042818D0032819D000281ED046
S1130460012824D000F0D4F930BF00F0B9F90028F5
S1130470E3D000F003FA00F039FA0628E8D10025A9
S11304800124EFE700260224ECE700270424E9E72F
S1130490012C24D0022C25D11036F6B2E2E72A0929
S11304A03109380900F078F900239846DAE7012386
S11304B09C46FA23E044DB00984518D8184B98452D
S11304C01BD8FA239B00984523D8FA235B00984550
S11304D019D900220021322000F05EF9C2E710355C
S11304E0EDB2BFE7042CBDD11037FFB2BAE700224A
S11304F00021002000F050F9B4E73222002100204E
S113050000F04AF9AEE714221421142000F044F953
S1130510A8E700223221002000F03EF9A2E7C046FD
S1130520DC0500008022144B1448D200195810B581
S1130530114319501248134C816C21400A438264C0
S113054080221149D202486902434A6180220F493C
S11305505204585802435A5007220D4B08211A607E
S11305605C329A600B4B3F3ADA6000221A611A68D7
S11305700A431A6010BDC0460070044038100000E1
S113058000A00440FFF8FFFF40F00F403C100000C3
S11305900080034000A003408022144B1449D20081
S11305A05858024313485A50C26C13491140C02290
S11305B092000A43C264802210491203486902432C
S11305C04A6180220E49D204585802435A500722E5
S11305D00C4B08211A60F8329A60DB3A5A61002207
S11305E09A611A680A431A607047C0460070044052
S11305F03810000000A00440FFF8FFFF40F00F4057
S11306003C10000000A00340014B98617047C046B5
S113061000A003400022014B9A61704700A00340F0
S1130620014B18617047C04600A003400022014BF3
S11306301A61704700A003408022124B12495201F4
S11306405858024311485A504268114911408022B7
S1130650D2000A43426002200E494A6902434A61B9
S113066080220D495204585802435A5007220B4B1A
S11306701A60F8329A60DB3A5A6100229A610832B1
S11306801A607047007004403810000000C0044035
S1130690FFF8FFFFC0F00F403C1000000080034053
S11306A0014B98617047C046008003400022014B13
S11306B09A617047008003408021F0B5C6462C4BF8
S11306C02C4A4901985800B50143995080210226CB
S11306D0294C2A4D6068C900284008436060284CB2
S11306E060693043C02660619858264C084398508E
S11306F0E06CB60028403043E0642348B0464769C4
S1130700BC46802766463F03374347619F584646A9
S113071039439950A26C154080222E43A664416946
S1130720D2020A4342618022184907255858FF24FF
S11307305204024380205A50154AC0041560946044
S11307405E58304358502421124B08201D609C6091
S113075051615961D96000211961996191611168F0
S1130760014311601A6802431A6004BC9046F0BD4C
S1130770007004403810000000C00440FFF8FFFF80
S1130780C0F00F4000A0044040F00F403C100000B7
S11307900080034000A00340024B9A61024B996120
S11307A0186170470080034000A00340C023054A3D
S11307B01B0351680B4302215360034A53680B43E4
S11307C05360704740F00F40C0F00F400722024BC7
S11307D01A60024A5A60704710E000E080BB0000D3
S11307E0034B1878C0B2002801D000221A70704759
S11307F000F0FF1F0122014B1A70704700F0FF1F29
S113080088230C21014A5B01D150704700700440D9
S11308105521034A034BD1505531D1507047C0463E
S1130820007004400411000080230A490A4A9B0016
S1130830885803438B500949094A0B6D1A40802399
S11308405B001343074A0B65536907490B40536127
S11308507047C04600700440381000000090044007
S1130860FFF8F0FF00F00F40FFFFEFFF024B1869A5
S1130870C002C00F7047C04600F00F400120024B79
S11308801B691B0D9843704700F00F4082B06B4604
S1130890DA1D002313701378984206D913780133B4
S11308A0DBB2137013788342F8D302B07047C046AA
S11308B080220D4982B052030B691342FCD06B466F
S11308C0DA1D002313701378092B06D8137801332B
S11308D0DBB213701378092BF8D90120024B1B6982
S11308E01B0D984302B0704700F00F40204B1A785C
S11308F0062A27D81F4992008A58974600220020CA
S11309001A707047FA211C4AC90012688A4205D835
S11309101A498A4218D906201870F2E7FEE7002126
S1130920154A11600028E9D0012201201A70E8E775
S113093011490A6801320A600028F5D10222023006
S11309401A70DEE70020DCE7FA2189008A4202D926
S113095005201870D5E7FA2149008A4202D90420FB
S11309601870CEE7002AC9D003201870C9E7C04622
S113097008F0FF1F8009000004F0FF1FDC050000E1
S11309801E0900003009000004090000FC080000F2
S10F0990FC080000FC080000FC0800004B
S9030131CA
