S012000070726F6A6563744F6E652E73726563F9
S11300000030002031010000C1000000C5000000E4
S1130010C1000000C1000000C1000000C1000000D8
S1130020C1000000C1000000C1000000C1000000C8
S1130030C1000000C1000000C1000000190A000056
S1130040C1000000C1000000C1000000C1000000A8
S1130050C1000000C1000000C1000000C100000098
S1130060C1000000C1000000C1000000C100000088
S1130070C1000000C1000000C1000000C100000078
S1130080C1000000C1000000C1000000C100000068
S1130090C1000000C1000000C1000000C100000058
S11300A0C1000000C1000000C1000000C100000048
S11300B0C1000000C1000000C1000000C100000038
S11300C0FEE7C046FEE7C04680231249124A9B0160
S11300D0885810B503438B50104B11495A680224B9
S11300E00A405A608022596852000A435A600D4AF5
S11300F05069A04350615968214359600221136932
S11301001942FCD00349044A07488B5803408B50DA
S113011010BDC046007004403810000000D00440F8
S1130120FFF8FFFF00F10F40FFDFFFFFC046C046AE
S1130130FFF7CAFF364A374B37499A608022374B5C
S11301409200585802435A50354A364999501A6811
S113015035490A4080211A60344A490298580143BB
S113016099509958324808408021490401439950D4
S1130170304B3148996C01409964DA6C002102409B
S1130180DA6424222D4B19702D4B5A7074321A7074
S1130190D878793A0240DA7001221A715971103113
S11301A09A791142FCD10C21254A93790B40082BF2
S11301B0FBD1402138335371214A93791942FCD041
S11301C0182313700C221E498B7913400C2BFBD17E
S11301D01C4B1D4A93420CD2D9438918002289082A
S11301E001311A48890084589C5004328A42FAD159
S11301F09B18174A934208D80321D21A8A43002134
S1130200181D121802C39342FCD100F015F9C04620
S11302100000000000ED00E0381000000070044011
S11302204410000000000110FFFFF3FF0410000061
S1130230FFFFFFFC00900440FFF8FFFE0050064063
S11302400040064000F0FF1F00F0FF1FD40E000026
S113025006F0FF1F00000000000000000000000086
S1130260000000000000000000000000000000008A
S1130270000000000000000000000000000000007A
S1130280000000000000000000000000000000006A
S1130290000000000000000000000000000000005A
S11302A0000000000000000000000000000000004A
S11302B0000000000000000000000000000000003A
S11302C0000000000000000000000000000000002A
S11302D0000000000000000000000000000000001A
S11302E0000000000000000000000000000000000A
S11302F000000000000000000000000000000000FA
S113030000000000000000000000000000000000E9
S113031000000000000000000000000000000000D9
S113032000000000000000000000000000000000C9
S113033000000000000000000000000000000000B9
S113034000000000000000000000000000000000A9
S11303500000000000000000000000000000000099
S11303600000000000000000000000000000000089
S11303700000000000000000000000000000000079
S11303800000000000000000000000000000000069
S11303900000000000000000000000000000000059
S11303A00000000000000000000000000000000049
S11303B00000000000000000000000000000000039
S11303C00000000000000000000000000000000029
S11303D00000000000000000000000000000000019
S11303E00000000000000000000000000000000009
S11303F000000000000000000000000000000000F9
S1130400FFFFFFFFFFFFFFFFFFFFFFFF7EF7FFFF81
S113041010B5002104003A2000F030FB0300234112
S11304200020DB0706D50134E1B23A3000F026FBA8
S1130430C0B2C00910BDC046F0B5DE4657464E46B0
S11304404546E0B583B072B600F034FA00F0EAFA3B
S113045000F0BAFA00F0CCFA00F0B6F862B600F098
S1130460A3FA0D213A2000F009FB1A2800D1A4E0D8
S113047001222A213A2000F067FB00F0D5F900237D
S1130480002799469B469A46984600260024002554
S1130490019330BF00F0B6FA0028FAD000F0BEF89D
S11304A000F0F4F8062816D0052817D0042818D030
S11304B003281AD000281FD0012841D000F08CFA5C
S11304C030BF00F09FFA0028E3D000F0A7F800F056
S11304D0DDF80628E8D100260124EFE700270224EE
S11304E0ECE7002304249846E8E7012C40D0022CD2
S11304F041D11037FFB2E1E72800FFF789FF8146B9
S1130500002D05D0022D43D0D146042D00D10190F9
S11305104B4659464046019A584372437943121157
S113052009110011D2B2C9B2C0B200F033FAA81C4A
S1130530062100F0BBFC0023CA46CDB29946BDE7B4
S113054001239C46FA23E144DB0099451AD81D4B4C
S1130550994520D8FA239B00994528D8FA235B00B3
S113056099451ED900220021322000F013FAA5E794
S11305701036F6B2A2E7042CA0D143461033DBB206
S113058098469BE700220021002000F003FA95E73B
S11305908346D146BCE732220021002000F0FAF95C
S11305A08CE714221421142000F0F4F986E70022C9
S11305B03221002000F0EEF980E7183000F02EF927
S11305C056E7C046DC05000080230A490A4A9B001E
S11305D0885803438B500949094A0B6D1A408023FC
S11305E05B001343074A0B65536907490B4053618A
S11305F07047C0460070044038100000009004406A
S1130600FFF8F0FF00F00F40FFFFEFFF024B186907
S1130610C002C00F7047C04600F00F400120024BDB
S11306201B691B0D9843704700F00F4082B06B4666
S1130630DA1D002313701378984206D91378013316
S1130640DBB2137013788342F8D302B07047C0460C
S113065080220D4982B052030B691342FCD06B46D1
S1130660DA1D002313701378092B06D8137801338D
S1130670DBB213701378092BF8D90120024B1B69E4
S11306801B0D984302B0704700F00F40204B1A78BE
S1130690062A27D81F4992008A589746002200202C
S11306A01A707047FA211C4AC90012688A4205D898
S11306B01A498A4218D906201870F2E7FEE7002189
S11306C0154A11600028E9D0012201201A70E8E7D8
S11306D011490A6801320A600028F5D10222023069
S11306E01A70DEE70020DCE7FA2189008A4202D989
S11306F005201870D5E7FA2149008A4202D904205E
S11307001870CEE7002AC9D003201870C9E7C04684
S113071004F0FF1FB80E000000F0FF1FDC0500000E
S11307208022144B1448D200195810B511431950A3
S11307301248134C816C21400A438264802211497F
S1130740D202486902434A6180220F495204585830
S113075002435A5007220D4B08211A605C329A60FA
S11307600B4B3F3ADA6000221A611A680A431A6096
S113077010BDC046007004403810000000A00440C2
S1130780FFF8FFFF40F00F403C10000000800340E2
S113079000A003408022144B1449D200585802434D
S11307A013485A50C26C13491140C02292000A43A4
S11307B0C264802210491203486902434A618022BC
S11307C00E49D204585802435A5007220C4B0821B0
S11307D01A60F8329A60DB3A5A6100229A611A6808
S11307E00A431A607047C046007004403810000085
S11307F000A00440FFF8FFFF40F00F403C10000051
S113080000A00340014B98617047C04600A003401C
S11308100022014B9A61704700A00340014B18610C
S11308207047C04600A003400022014B1A61704784
S113083000A003408022124B12495201585802432F
S113084011485A504268114911408022D2000A438B
S1130850426002200E494A6902434A6180220D49DE
S11308605204585802435A5007220B4B1A60F8326C
S11308709A60DB3A5A6100229A6108321A60704722
S1130880007004403810000000C00440FFF8FFFF6F
S1130890C0F00F403C10000000800340014B986101
S11308A07047C046008003400022014B9A617047A4
S11308B0008003408021F0B5C6462C4B2C4A4901E8
S11308C0985800B50143995080210226294C2A4D9D
S11308D06068C900284008436060284C6069304360
S11308E0C02660619858264C08439850E06CB600C6
S11308F028403043E0642348B0464769BC4680271B
S113090066463F03374347619F58464639439950EB
S1130910A26C154080222E43A6644169D2020A4388
S113092042618022184907255858FF245204024383
S113093080205A50154AC004156094605E583043B4
S113094058502421124B08201D609C60516159614C
S1130950D9600021196199619161116801431160A5
S11309601A6802431A6004BC9046F0BD007004404B
S11309703810000000C00440FFF8FFFFC0F00F4033
S113098000A0044040F00F403C10000000800340F1
S113099000A00340024B9A61024B996118617047B1
S11309A00080034000A00340C023054A1B03516894
S11309B00B4302215360034A53680B43536070474F
S11309C040F00F40C0F00F4088230C21014A5B0126
S11309D0D1507047007004405521034A034BD15055
S11309E05531D1507047C0460070044004110000D6
S11309F00722024B1A60024A5A60704710E000E076
S1130A0080BB0000034B1878C0B2002801D000223C
S1130A101A70704705F0FF1F0122014B1A707047CE
S1130A2005F0FF1F40200F4B0F495A5802435A50FC
S1130A3080220E499201585802435A50A0210C4A70
S1130A400C48136EC90003400B431366536E0340F6
S1130A50194351660F228021074B5A709A780A4332
S1130A609A70704700700440341000003810000081
S1130A7000D00440FFF8FFFF0060064010B52024BA
S1130A80304AD3781C42FCD1102493782343202489
S1130A90937093782343022493701071294AD37876
S1130AA01C42FCD00224D3782343D370D378DB07D1
S1130AB00CD411710221234AD3781942FCD00221AB
S1130AC0D3780B43D370D378DB070AD510211D4BA1
S1130AD000209A780A4320219A709A788A439A705F
S1130AE010BD042193780B43937001230221184312
S1130AF01071144AD3781942FCD00221D3780B43E5
S1130B00D370D378DB07E1D4102193788B43082189
S1130B109370137993780B4302219370094BDA781D
S1130B201142FCD00221DA780A431021DA709A7853
S1130B300A4320219A709A788A439A701879C0B22D
S1130B40CEE7C0460060064030B520251E4CE37851
S1130B501D42FCD11025A3782B432025A370A37834
S1130B602B43A370207102241748C3781C42FCD085
S1130B700224C3782343C370C378DB071DD40171F7
S1130B8002201149CB781842FCD00220CB780343D1
S1130B90CB70CB78DB0710D40A7102210A4AD378D0
S1130BA01942FCD00221D3780B43D370D378DB07EE
S1130BB003D4202193788B4393702021024A002090
S1130BC093788B43937030BD006006400022430845
S1130BD08B4274D303098B425FD3030A8B4244D301
S1130BE0030B8B4228D3030C8B420DD3FF22090243
S1130BF012BA030C8B4202D31212090265D0030B02
S1130C008B4219D300E0090AC30B8B4201D3CB03F7
S1130C10C01A5241830B8B4201D38B03C01A524139
S1130C20430B8B4201D34B03C01A5241030B8B423B
S1130C3001D30B03C01A5241C30A8B4201D3CB0226
S1130C40C01A5241830A8B4201D38B02C01A52410B
S1130C50430A8B4201D34B02C01A5241030A8B420E
S1130C6001D30B02C01A5241CDD2C3098B4201D326
S1130C70CB01C01A524183098B4201D38B01C01AA4
S1130C80524143098B4201D34B01C01A524103091B
S1130C908B4201D30B01C01A5241C3088B4201D3CA
S1130CA0CB00C01A524183088B4201D38B00C01A77
S1130CB0524143088B4201D34B00C01A5241411A9E
S1130CC000D20146524110467047FFE701B50020AB
S1130CD000F0F0F802BDC0460029F7D076E770476F
S1130CE003460B437FD4002243088B4274D3030989
S1130CF08B425FD3030A8B4244D3030B8B4228D32A
S1130D00030C8B420DD3FF22090212BA030C8B424F
S1130D1002D31212090265D0030B8B4219D300E0EF
S1130D20090AC30B8B4201D3CB03C01A5241830B74
S1130D308B4201D38B03C01A5241430B8B4201D324
S1130D404B03C01A5241030B8B4201D30B03C01A4D
S1130D505241C30A8B4201D3CB02C01A5241830AC7
S1130D608B4201D38B02C01A5241430A8B4201D3F6
S1130D704B02C01A5241030A8B4201D30B02C01A20
S1130D805241CDD2C3098B4201D3CB01C01A524187
S1130D9083098B4201D38B01C01A524143098B4210
S1130DA001D34B01C01A524103098B4201D30B01F9
S1130DB0C01A5241C3088B4201D3CB00C01A52411E
S1130DC083088B4201D38B00C01A524143088B42E3
S1130DD001D34B00C01A5241411A00D2014652417C
S1130DE0104670475DE0CA0F00D04942031000D39B
S1130DF04042534000229C4603098B422DD3030AF0
S1130E008B4212D3FC22890112BA030A8B420CD3FF
S1130E10890192118B4208D3890192118B4204D328
S1130E2089013AD0921100E08909C3098B4201D3A8
S1130E30CB01C01A524183098B4201D38B01C01AE2
S1130E40524143098B4201D34B01C01A5241030959
S1130E508B4201D30B01C01A5241C3088B4201D308
S1130E60CB00C01A524183088B4201D38B00C01AB5
S1130E705241D9D243088B4201D34B00C01A52418C
S1130E80411A00D20146634652415B10104601D319
S1130E904042002B00D54942704763465B1000D3A3
S1130EA0404201B5002000F005F802BD0029F8D049
S1130EB016E770477047C046BE060000D006000023
S1130EC0A40600009C0600009C0600009C0600008E
S1070ED09C06000078
S9030131CA
