S0130000546573745F536C696465722E73726563AF
S11300000030002031010000C1000000C5000000E4
S1130010C1000000C1000000C1000000C1000000D8
S1130020C1000000C1000000C1000000C1000000C8
S1130030C1000000C1000000C100000085070000ED
S1130040C1000000C1000000C1000000C1000000A8
S1130050C1000000C1000000C1000000C100000098
S1130060C1000000C1000000C1000000C100000088
S1130070C1000000C1000000C1000000C100000078
S1130080C1000000C1000000C1000000C100000068
S1130090C1000000C1000000C1000000C100000058
S11300A0C1000000C1000000C1000000C100000048
S11300B0C1000000C1000000C1000000C100000038
S11300C0FEE7C046FEE7C04680231249124A9B0160
S11300D0885810B503438B50104B11495A680224B9
S11300E00A405A608022596852000A435A600D4AF5
S11300F05069A04350615968214359600221136932
S11301001942FCD00349044A07488B5803408B50DA
S113011010BDC046007004403810000000D00440F8
S1130120FFF8FFFF00F10F40FFDFFFFFC046C046AE
S1130130FFF7CAFF88220021364B520199503648F6
S1130140364A90608022364892001C5822431A5046
S1130150344A354898501A683448024080201A605E
S1130160334A40029C58204398509858314C0440DC
S113017080204004204398502F4B304C986C2040F2
S11301809864DA6C2240DA6424222D4B19702D4BCA
S11301905A7074321A70D878793A0240DA700122AF
S11301A01A71597110319A791142FCD10C21254AE6
S11301B093790B40082BFBD1402138335371214AEA
S11301C093791942FCD0182313700C221D498B79A2
S11301D013400C2BFBD11C4B1C4A93420CD2D94329
S11301E089180022890801311948890084589C50D3
S11301F004328A42FAD19B18164A934208D8032142
S1130200D21A8A430021181D121802C39342FCD14A
S113021000F0FEF8007004400000000000ED00E073
S1130220381000004410000000000110FFFFF3FF2D
S113023004100000FFFFFFFC00900440FFF8FFFEE5
S1130240005006400040064000F0FF1F00F0FF1F72
S1130250C809000009F0FF1F0000000000000000B2
S1130260000000000000000000000000000000008A
S1130270000000000000000000000000000000007A
S1130280000000000000000000000000000000006A
S1130290000000000000000000000000000000005A
S11302A0000000000000000000000000000000004A
S11302B0000000000000000000000000000000003A
S11302C0000000000000000000000000000000002A
S11302D0000000000000000000000000000000001A
S11302E0000000000000000000000000000000000A
S11302F000000000000000000000000000000000FA
S113030000000000000000000000000000000000E9
S113031000000000000000000000000000000000D9
S113032000000000000000000000000000000000C9
S113033000000000000000000000000000000000B9
S113034000000000000000000000000000000000A9
S11303500000000000000000000000000000000099
S11303600000000000000000000000000000000089
S11303700000000000000000000000000000000079
S11303800000000000000000000000000000000069
S11303900000000000000000000000000000000059
S11303A00000000000000000000000000000000049
S11303B00000000000000000000000000000000039
S11303C00000000000000000000000000000000029
S11303D00000000000000000000000000000000019
S11303E00000000000000000000000000000000009
S11303F000000000000000000000000000000000F9
S1130400FFFFFFFFFFFFFFFFFFFFFFFF7EF7FFFF81
S113041070B500F07DFA00F09DF800F08FF9174CEC
S1130420174D184E00F0A0FAA04213D8A84215D8D0
S1130430B04217D8144B984218D8144B984219D884
S1130440134B9842EED9042000F014F900F08CFA12
S1130450A042EBD9062000F00DF9E3E7052000F0F7
S113046009F9DFE7032000F005F9DBE7022000F0DB
S113047001F9D7E7012000F0FDF8D3E7FC530000B1
S1130480204E000044480000684200008C3C0000FC
S1130490B036000080230A490A4ADB008858034327
S11304A08B500949094A8B6C1A4080235B00134323
S11304B08B648023064ADB0251690B435361704706
S11304C0007004403810000000A00440FFF8F0FF62
S11304D040F00F4080230A490A4ADB00885803434E
S11304E08B500949094ACB6C1A4080235B001343A3
S11304F0CB648023064A1B0351690B435361704745
S1130500007004403810000000A00440FFF8F0FF21
S113051040F00F4080230A490A4A5B01885803438C
S11305208B500949094A4B681A4080235B001343E6
S11305304B600221064A53690B4353617047C0461E
S1130540007004403810000000C00440FFF8F0FFC1
S1130550C0F00F408021164A164B4901D05870B59F
S11305600143D15080218025134C144E606849000A
S1130570304008436060D058ED00114C2843D050FF
S1130580E06C30400843E064D0580543D550A36C78
S11305900C4A33401943C023A16451691B030B4324
S11305A002215361084A53690B43536170BDC0462D
S11305B0007004403810000000C00440FFF8F0FF51
S11305C000A0044040F00F40C0F00F408023034AD5
S11305D0DB0291680B4393607047C04640F00F40C4
S11305E08023034ADB0251680B4353607047C046C3
S11305F040F00F408023034ADB02D1680B43D360F1
S11306007047C04640F00F408023034A1B039168A3
S11306100B4393607047C04640F00F408023034A69
S11306201B0351680B4353607047C04640F00F40B2
S11306308023034A1B03D1680B43D3607047C04631
S113064040F00F400221024A93680B4393607047C5
S1130650C0F00F400221024A53680B4353607047B5
S1130660C0F00F400221024AD3680B43D3607047A5
S1130670C0F00F40072813D82D4B80001B589F460D
S113068002212C4A53680B43536080222A4B1203E5
S113069099680A439A6080229968D2020A439A6050
S11306A070470221234A93680B439360EDE7C0230C
S11306B0214A1B0351680B43022153601D4A5368AE
S11306C00B435360ECE702211A4A93680B4393608F
S11306D08022194B120359680A435A6080225968D0
S11306E0D2020A435A60DBE70221124A53680B43E1
S11306F053608022104B120399680A439A60EDE715
S113070002210C4A93680B439360F2E70221094AE1
S113071053680B4353608022074B120359680A4302
S11307205A60B8E70221034A93680B439360F2E7E7
S11307308C090000C0F00F4040F00F40C023054A70
S11307401B0351680B4302215360034A53680B4354
S11307505360704740F00F40C0F00F400722024B37
S11307601A60024A5A60704710E000E080BB000043
S1130770034B1878C0B2002801D000221A707047C9
S113078000F0FF1F0122014B1A70704700F0FF1F99
S113079088230C21014A5B01D1507047007004404A
S11307A05521034A034BD1505531D1507047C046AF
S11307B0007004400411000080230A490A4A9B0087
S11307C0885803438B500949094A0B6D1A4080230A
S11307D05B001343074A0B65536907490B40536198
S11307E07047C04600700440381000000090044078
S11307F0FFF8F0FF00F00F40FFFFEFFF024B186916
S1130800C002C00F7047C04600F00F400120024BE9
S11308101B691B0D9843704700F00F4082B06B4674
S1130820DA1D002313701378984206D91378013324
S1130830DBB2137013788342F8D302B07047C0461A
S113084080220D4982B052030B691342FCD06B46DF
S1130850DA1D002313701378092B06D8137801339B
S1130860DBB213701378092BF8D90120024B1B69F2
S11308701B0D984302B0704700F00F40204B1A78CC
S1130880062A27D81F4992008A589746002200203A
S11308901A707047FA211C4AC90012688A4205D8A6
S11308A01A498A4218D906201870F2E7FEE7002197
S11308B0154A11600028E9D0012201201A70E8E7E6
S11308C011490A6801320A600028F5D10222023077
S11308D01A70DEE70020DCE7FA2189008A4202D997
S11308E005201870D5E7FA2149008A4202D904206C
S11308F01870CEE7002AC9D003201870C9E7C04693
S113090008F0FF1FAC09000004F0FF1FDC05000025
S113091020200849084A8B5803438B508021074BF9
S1130920074A1A601A680A431A601968054A0A4392
S11309301A607047007004403810000000500440F2
S11309400081800004000080024B18684007C00F3B
S11309507047C04600500440024B18680007C00F9F
S11309607047C046005004400421064B064A5A60B2
S11309701A681142FCD01A6811431960586880B291
S11309807047C0460050044000004090AE0600008E
S1130990C6060000E8060000000700000C0700007F
S11309A02407000080060000A2060000AE08000034
S11309B0C0080000940800008C0800008C080000A7
S10B09C08C0800008C08000003
S9030131CA
