S010000054504D5F746573742E7372656304
S11300000030002031010000C1000000C5000000E4
S1130010C1000000C1000000C1000000C1000000D8
S1130020C1000000C1000000C1000000C1000000C8
S1130030C1000000C1000000C1000000DD07000095
S1130040C1000000C1000000C1000000C1000000A8
S1130050C1000000C1000000C1000000C100000098
S1130060C1000000C1000000C1000000C100000088
S1130070C1000000C1000000C1000000C100000078
S1130080C1000000C1000000C1000000C100000068
S1130090C1000000C1000000C1000000C100000058
S11300A0C1000000C1000000C1000000C100000048
S11300B0C1000000C1000000C1000000C100000038
S11300C0FEE7C046FEE7C04680231249124A9B0160
S11300D0885810B503438B50104B11495A680224B9
S11300E00A405A608022596852000A435A600D4AF5
S11300F05069A04350615968214359600221136932
S11301001942FCD00349044A07488B5803408B50DA
S113011010BDC046007004403810000000D00440F8
S1130120FFF8FFFF00F10F40FFDFFFFFC046C046AE
S1130130FFF7CAFF88220021364B520199503648F6
S1130140364A90608022364892001C5822431A5046
S1130150344A354898501A683448024080201A605E
S1130160334A40029C58204398509858314C0440DC
S113017080204004204398502F4B304C986C2040F2
S11301809864DA6C2240DA6424222D4B19702D4BCA
S11301905A7074321A70D878793A0240DA700122AF
S11301A01A71597110319A791142FCD10C21254AE6
S11301B093790B40082BFBD1402138335371214AEA
S11301C093791942FCD0182313700C221D498B79A2
S11301D013400C2BFBD11C4B1C4A93420CD2D94329
S11301E089180022890801311948890084589C50D3
S11301F004328A42FAD19B18164A934208D8032142
S1130200D21A8A430021181D121802C39342FCD14A
S113021000F0FEF8007004400000000000ED00E073
S1130220381000004410000000000110FFFFF3FF2D
S113023004100000FFFFFFFC00900440FFF8FFFEE5
S1130240005006400040064000F0FF1F00F0FF1F72
S11302503008000001F0FF1F000000000000000053
S1130260000000000000000000000000000000008A
S1130270000000000000000000000000000000007A
S1130280000000000000000000000000000000006A
S1130290000000000000000000000000000000005A
S11302A0000000000000000000000000000000004A
S11302B0000000000000000000000000000000003A
S11302C0000000000000000000000000000000002A
S11302D0000000000000000000000000000000001A
S11302E0000000000000000000000000000000000A
S11302F000000000000000000000000000000000FA
S113030000000000000000000000000000000000E9
S113031000000000000000000000000000000000D9
S113032000000000000000000000000000000000C9
S113033000000000000000000000000000000000B9
S113034000000000000000000000000000000000A9
S11303500000000000000000000000000000000099
S11303600000000000000000000000000000000089
S11303700000000000000000000000000000000079
S11303800000000000000000000000000000000069
S11303900000000000000000000000000000000059
S11303A00000000000000000000000000000000049
S11303B00000000000000000000000000000000039
S11303C00000000000000000000000000000000029
S11303D00000000000000000000000000000000019
S11303E00000000000000000000000000000000009
S11303F000000000000000000000000000000000F9
S1130400FFFFFFFFFFFFFFFFFFFFFFFF7EF7FFFF81
S113041070B572B600F0CEF900F0F8F862B6642058
S113042000F0E8F80026002430BF00F0CDF9051EE6
S1130430FAD000F0E5F8002E16D00134E4B2652CB1
S113044001D10026013C200000F094F8200000F0C7
S113045085F800F0D1F930BF00F0B6F9051EE3D0FD
S113046000F0CEF8002EE8D1013CE4B2FF2CEAD132
S11304702E000024E7E7C0468022144B1448D20023
S1130480195810B5114319501248134C816C21406E
S11304900A43826480221149D202486902434A61B4
S11304A080220F495204585802435A5007220D4BD8
S11304B008211A605C329A600B4B3F3ADA600022E2
S11304C01A611A680A431A6010BDC04600700440DD
S11304D03810000000A00440FFF8FFFF40F00F4078
S11304E03C1000000080034000A003408022144B15
S11304F01449D2005858024313485A50C26C134945
S11305001140C02292000A43C2648022104912039F
S1130510486902434A6180220E49D2045858024372
S11305205A5007220C4B08211A60F8329A60DB3AC1
S11305305A6100229A611A680A431A607047C046D9
S1130540007004403810000000A00440FFF8FFFFD2
S113055040F00F403C10000000A00340014B9861A4
S11305607047C04600A003400022014B9A617047C7
S113057000A00340014B18617047C04600A003402F
S11305800022014B1A61704700A003408022124BE5
S1130590124952015858024311485A5042681149AD
S11305A011408022D2000A43426002200E494A6967
S11305B002434A6180220D495204585802435A505A
S11305C007220B4B1A60F8329A60DB3A5A61002218
S11305D09A6108321A6070470070044038100000B5
S11305E000C00440FFF8FFFFC0F00F403C100000C3
S11305F000800340014B98617047C046008003406F
S11306000022014B9A617047008003408021F0B5BD
S1130610C6462C4B2C4A4901985800B501439950C1
S113062080210226294C2A4D6068C90028400843CD
S11306306060284C60693043C02660619858264C3D
S113064008439850E06CB60028403043E0642348E7
S1130650B0464769BC46802766463F033743476137
S11306609F58464639439950A26C154080222E4328
S1130670A6644169D2020A434261802218490725CF
S11306805858FF245204024380205A50154AC0048B
S1130690156094605E58304358502421124B082052
S11306A01D609C6051615961D96000211961996193
S11306B091611168014311601A6802431A6004BC15
S11306C09046F0BD007004403810000000C00440A3
S11306D0FFF8FFFFC0F00F4000A0044040F00F40BF
S11306E03C1000000080034000A00340072809D804
S11306F0234B80001B589F466423224A9361224A5D
S113070093611361704700221E4B9A611E4B643241
S11307109A611A61F6E7C0231C4A1B0351680B4314
S1130720022153601A4A53680B435360EAE7642278
S1130730144B9A610022144B9A611A61E2E7002279
S11307406421104B9A61104B99611A61DAE76422B3
S11307500C4B9A610C4B9A6100221A61D2E7002279
S1130760084B9A61084B9A6164321A61CAE76422A1
S11307700021044B9A61044B99611A61C2E7C04697
S1130780100800000080034000A0034040F00F4028
S1130790C0F00F40C023054A1B0351680B430221DC
S11307A05360034A53680B435360704740F00F4053
S11307B0C0F00F400722024B1A60024A5A60704789
S11307C010E000E080BB0000034B1878C0B20028A2
S11307D001D000221A70704700F0FF1F0122014B64
S11307E01A70704700F0FF1F88230C21014A5B0137
S11307F0D1507047007004405521034A034BD15037
S11308005531D1507047C0460070044004110000B7
S1130810160700002E0700003E0700004E070000E8
S11308205E0700006E07000006070000F8060000DF
S9030131CA
