S01500007761746368646F675F746573742E737265639F
S11300000030002031010000C1000000C5000000E4
S1130010C1000000C1000000C1000000C1000000D8
S1130020C1000000C1000000C1000000C1000000C8
S1130030C1000000C1000000C10000007107000001
S1130040C1000000C1000000C1000000C1000000A8
S1130050C1000000C1000000C1000000C100000098
S1130060C1000000C1000000C1000000C100000088
S1130070C1000000C1000000C1000000C100000078
S1130080C1000000C1000000C1000000C100000068
S1130090C1000000C1000000C1000000C100000058
S11300A0C1000000C1000000C1000000C100000048
S11300B0C1000000C1000000C1000000C100000038
S11300C0FEE7C046FEE7C04680231249124A9B0160
S11300D0885810B503438B50104B11495A680224B9
S11300E00A405A608022596852000A435A600D4AF5
S11300F05069A04350615968214359600221136932
S11301001942FCD00349044A07488B5803408B50DA
S113011010BDC046007004403810000000D00440F8
S1130120FFF8FFFF00F10F40FFDFFFFFC046C046AE
S1130130FFF7CAFF364A374B37499A608022374B5C
S11301409200585802435A50354A364999501A6811
S113015035490A4080211A60344A490298580143BB
S113016099509958324808408021490401439950D4
S1130170304B3148996C01409964DA6C002102409B
S1130180DA6424222D4B19702D4B5A7074321A7074
S1130190D878793A0240DA7001221A715971103113
S11301A09A791142FCD10C21254A93790B40082BF2
S11301B0FBD1402138335371214A93791942FCD041
S11301C0182313700C221E498B7913400C2BFBD17E
S11301D01C4B1D4A93420CD2D9438918002289082A
S11301E001311A48890084589C5004328A42FAD159
S11301F09B18174A934208D80321D21A8A43002134
S1130200181D121802C39342FCD100F00DF9C04628
S11302100000000000ED00E0381000000070044011
S11302204410000000000110FFFFF3FF0410000061
S1130230FFFFFFFC00900440FFF8FFFE0050064063
S11302400040064000F0FF1F00F0FF1FB008000050
S113025002F0FF1F0000000000000000000000008A
S1130260000000000000000000000000000000008A
S1130270000000000000000000000000000000007A
S1130280000000000000000000000000000000006A
S1130290000000000000000000000000000000005A
S11302A0000000000000000000000000000000004A
S11302B0000000000000000000000000000000003A
S11302C0000000000000000000000000000000002A
S11302D0000000000000000000000000000000001A
S11302E0000000000000000000000000000000000A
S11302F000000000000000000000000000000000FA
S113030000000000000000000000000000000000E9
S113031000000000000000000000000000000000D9
S113032000000000000000000000000000000000C9
S113033000000000000000000000000000000000B9
S113034000000000000000000000000000000000A9
S11303500000000000000000000000000000000099
S11303600000000000000000000000000000000089
S11303700000000000000000000000000000000079
S11303800000000000000000000000000000000069
S11303900000000000000000000000000000000059
S11303A00000000000000000000000000000000049
S11303B00000000000000000000000000000000039
S11303C00000000000000000000000000000000029
S11303D00000000000000000000000000000000019
S11303E00000000000000000000000000000000009
S11303F000000000000000000000000000000000F9
S1130400FFFFFFFFFFFFFFFFFFFFFFFF7EF7FFFF81
S1130410044B82B00193019B5A1E0192002BFAD126
S113042002B070470053070000B585B000F01CFA15
S113043000F086F800F0DEF800F076F900F0D0F86D
S11304400E4B0393039B5A1E0392002BFAD100F028
S1130450C7F80A4B0293029B5A1E0292002BFAD150
S113046000F0BEF8054B0193019B5A1E0192002B2C
S1130470FAD100F0BFF800F0BDF8FAE70053070026
S113048080230A490A4ADB00885803438B500949F0
S1130490094A8B6C1A4080235B0013438B648023CE
S11304A0064ADB0251690B435361704700700440F4
S11304B03810000000A00440FFF8F0FF40F00F40A7
S11304C080230A490A4ADB00885803438B500949B0
S11304D0094ACB6C1A4080235B001343CB6480230E
S11304E0064A1B0351690B43536170470070044073
S11304F03810000000A00440FFF8F0FF40F00F4067
S113050080230A490A4A5B01885803438B500949EE
S1130510094A4B681A4080235B0013434B60022155
S1130520064A53690B4353617047C0460070044048
S11305303810000000C00440FFF8F0FFC0F00F4086
S11305408021164A164B4901D05870B50143D15049
S113055080218025134C144E6068490030400843C4
S11305606060D058ED00114C2843D050E06C30400E
S11305700843E064D0580543D550A36C0C4A33407B
S11305801943C023A16451691B030B430221536126
S1130590084A53690B43536170BDC0460070044060
S11305A03810000000C00440FFF8F0FF00A0044031
S11305B040F00F40C0F00F408023034ADB029168F3
S11305C00B4393607047C04640F00F408023034ABA
S11305D0DB0251680B4353607047C04640F00F4044
S11305E08023034ADB02D1680B43D3607047C046C3
S11305F040F00F408023034A1B0391680B43936030
S11306007047C04640F00F408023034A1B035168E3
S11306100B4353607047C04640F00F408023034AA9
S11306201B03D1680B43D3607047C04640F00F40B2
S11306300221024A93680B4393607047C0F00F4055
S11306400221024A53680B4353607047C0F00F40C5
S11306500221024AD3680B43D3607047C0F00F40B5
S1130660072813D82D4B80001B589F4602212C4A83
S113067053680B43536080222A4B120399680A4340
S11306809A6080229968D2020A439A6070470221D4
S1130690234A93680B439360EDE7C023214A1B036D
S11306A051680B43022153601D4A53680B43536046
S11306B0ECE702211A4A93680B4393608022194B9A
S11306C0120359680A435A6080225968D2020A43C5
S11306D05A60DBE70221124A53680B4353608022BD
S11306E0104B120399680A439A60EDE702210C4A01
S11306F093680B439360F2E70221094A53680B4362
S113070053608022074B120359680A435A60B8E7C2
S11307100221034A93680B439360F2E790080000B8
S1130720C0F00F4040F00F40C023054A1B0351683E
S11307300B4302215360034A53680B4353607047D1
S113074040F00F40C0F00F400722024B1A60024AEB
S11307505A60704710E000E080BB0000034B18783B
S1130760C0B2002801D000221A70704700F0FF1FA9
S11307700122014B1A70704700F0FF1F80230A49C1
S11307800A4A9B00885803438B500949094A0B6D58
S11307901A4080235B001343074A0B6553690749DA
S11307A00B4053617047C04600700440381000008D
S11307B000900440FFF8F0FF00F00F40FFFFEFFF50
S11307C0024B1869C002C00F7047C04600F00F40CA
S11307D00120024B1B691B0D9843704700F00F402A
S11307E082B06B46DA1D002313701378984206D941
S11307F013780133DBB2137013788342F8D302B059
S11308007047C04680220C4982B052030B691340E2
S1130810FCD16A46073213701378092B06D8137873
S11308200133DBB213701378092BF8D9024B186922
S1130830C002C00F02B0704700F00F40094A13789D
S1130840002B08D0012B02D0002318007047031E90
S1130850FBD11070F9E700230028F6D001331370A0
S11308600300F2E701F0FF1F88230C21014A5B011A
S1130870D1507047007004405521034A034BD150B6
S11308805531D1507047C046007004400411000037
S11308909A060000B2060000D4060000EC06000030
S11308A0F8060000100700006C0600008E06000029
S9030131CA
